S01000005761746368646F672E73726563E3
S1130000E02C002075020000710200007102000063
S113001000000000000000000000000000000000DC
S11300200000000000000000000000007102000059
S113003000000000000000007102000071020000D6
S113004071020000710200007102000051100000F2
S113005071020000710200007102000071020000D0
S113006071020000710200007102000071020000C0
S113007071020000710200007102000071020000B0
S113008071020000710200007102000071020000A0
S1130090B91B0000F51B0000CD1B0000710200001D
S11300A0E11B0000710200007102000071020000F7
S11300B071020000710200007102000010B5064CCC
S11300C02378002B07D1054B002B02D0044800E015
S11300D000BF0123237010BD7C0800200000000035
S11300E048590000084B10B5002B03D007490848B5
S11300F000E000BF07480368002B00D110BD064B89
S1130100002BFBD09847F9E700000000800800208E
S113011048590000485900000000000010B5014B88
S1130120984710BD4D050000F0B5DE4657464E46D3
S1130130C0B582B004004569836999460369019397
S1130140076843685B42436182684368013A5343EA
S11301508361C3685B00C36003695B00036100697A
S1130160104B984720604D4512D000260E4B9B46FD
S11301700E4B9A46606840190199D8470D002068D3
S1130180626880197918D0476368F618A945F1D1D7
S11301903800074B984702B01CBC91469A46A346C8
S11301A0F0BDC046D94B0000210F0000695100008A
S11301B0ED4B000070B504000D008800084B984713
S11301C0206065600023A3600433E3606268E36831
S11301D05343236163685B42A361636170BDC0469E
S11301E0D94B000070B504000D008268C3689A42C0
S11301F006D30C4E2000B047A268E3689A42F9D2B5
S1130200A3680133A360A06963682169C018064B21
S11302109847A1612068A3696268C0182900034B4C
S1130220984770BD29010000210F000069510000AA
S113023070B504000D008368002B02D10377002001
S113024070BD8368013B8360406963682169C0189D
S1130250054B98476161216863696268C918280081
S1130260024B98470120EBE7210F00006951000081
S1130270FEE7000010B5174A174B9A4211D01A0036
S1130280164B9A420DD2164A03339B1A9B0801332C
S11302909B00002210480F498C58845004329A4223
S11302A0FAD1104A104B9A420AD2D3430E495B1832
S11302B003218B4304339B18002102C29342FCD1D7
S11302C00A4AFF210A4B8B4393600A4B98470A4B17
S11302D09847FEE748590000000000207C080020F1
S11302E0040000207C080020DC0C002000ED00E06D
S11302F000000000914B0000451D0000F8B54021AE
S11303008823244AD150244A51698023DB000B43BB
S11303105361C020C0058022520482235B00C25076
S11303208223DB05942252001C4D9D501C49995098
S1130330AC2464001A5D04218A431A55195D01270F
S1130340B94301263143C9B219559E2149005A5C6B
S11303504A3CFF3CA2435A54842280242403845000
S113036094395D500F4D5D5084502B315D5C803A63
S113037015435D54943284505A5CBA433243D2B22A
S11303805A541A395A5C0F2002405A54064B984763
S1130390F8BDC046001C00400008004000000240B8
S11303A0000102C0080002C00D08000070B58223DD
S11303B0DB055020195C042291431954195C012572
S11303C0A94301242143C9B219541838195C0F26D2
S11303D0B1430D3E3143195451215E5C96435E5442
S11303E05A5CAA432243D2B25A541A5C42390A4094
S11303F011310A431A5470BD064B4021D022995042
S11304000331083A9950044AD3693F390B43D36105
S11304107047C046001C00400008004010B5044B63
S1130420984704490448054B9847054B984710BD25
S1130430F903000000080042F80900206D090000DB
S1130440AD030000F0B5D6464F464646C0B58223FC
S1130450DB05D020195C0126B14301221143C9B246
S11304601954B821585C0F25A8430224A1464C46D0
S11304702043C0B25854C020C00582468027BF0222
S1130480882407512034A4468024E405A046644609
S11304904046185114488046604644461C5014385F
S11304A054462750D127D85D0424A043D855D85D9D
S11304B0B0431043C0B2D855585CC23F38401137DE
S11304C038435854D220195CB1431143C9B219546A
S11304D0B9215A5CAA4348460243D2B25A541CBCBE
S11304E090469946A246F0BD020000C0054B40214B
S11304F0E42299504320043A9850034AD3690B43A9
S1130500D3617047001C00400008004010B5054B43
S11305109847002204490548054B9847054B9847DE
S113052010BDC046ED04000000180042340A00204B
S1130530910D00004504000010B50248024B984795
S113054010BDC04610E000E085070000F8B5DE46A7
S113055057464E464546E0B56A4B9847C022D205F9
S11305608021C90091608223DB0567489862C0201E
S11305700006986251614A255C5D01218C435C55FB
S113058080252D019560614C9C62986255614B26D3
S11305909D5D8D439D558025ED0295608026F60571
S11305A0B2469E625A4F9F6255615227DD5D8D436C
S11305B0DD558025AD0395609E62564F9F6255615F
S11305C05527DD5D8D43DD558825AC4651512035D9
S11305D0514F5F5158519426B34691512C36B14630
S11305E09E5D8E43B0464E4647469F55BE3EB0463E
S11305F0664647469751494E5E51585146465F46B6
S1130600D651BF36B1469E5D8E43B0464E464746F0
S11306109F55BD3EB046664647469751404E5E5193
S113062058515E469751BE37DD5D8D43DD554637E3
S11306302025AC46D5510935FF353A4E5E51585107
S11306408C204000664616504620FF308446185CD5
S113065088436646985580200005D05156465E5121
S1130660314E5E51143D50515C20FF301A5C8A4378
S11306701A542E4B98472E4B98472E4B98472E4B87
S11306809847E26980235B011343E3612B4F4023C6
S11306909846B8334246FA50294EB04702002949D9
S11306A029482A4DA847E2698023DB011343E3610B
S11306B0FC234246FA50B047020025492548A84782
S11306C0E26980235B021343E36180235B004246BB
S11306D0FA50B047020020492048A847236A08225C
S11306E01343236298235B004246FA50B04702004A
S11306F01B491C48A8473CBC90469946A246AB46B9
S1130700F8BDC0469D0E00000004004000080040F3
S1130710040000C0200000C00100004002000040AE
S11307200400004020000040000800C0FD0200005A
S11307301D0400000D05000039050000001C0040E8
S1130740751B0000003000425C0A0020190B0000F9
S113075000380042180A002000400042DC09002052
S1130760000C0043400A0020EFF31083036072B6CC
S1130770BFF35F8F7047BFF35F8F036883F3108805
S11307807047000010B5024B1860024B984710BD2B
S1130790980800209918000010B5044B1C68044BFD
S11307A0984701002000034B984710BD980800208B
S11307B0950E0000AD180000F8B5134BD9688842B7
S11307C005D0012202270024FF261D0016E0012384
S11307D0DB000D4A9B58002B00D09847F8BD013A26
S11307E0D7B2A742FAD33B195B10DAB2012AF5D883
S11307F03340D900691849688142E9D08842EED96A
S11308000132D4B2EDE7C0469C08002010B5064B77
S113081001214942596000221A60D9609A60034854
S1130820034B984710BDC0469C080020B907000040
S1130830590F0000F8B52B4B5B6898421AD0294B2E
S1130840DB6883420DD0002923D0264B1B6800228D
S1130850002B23D0234B9B68002B1DD00D2040423E
S11308603EE00123DB001F4A9950002935D11E4B7D
S1130870984735E00023F5E75C1C1BD0194D2C6824
S1130880A446CC002C19C0CCC0C564461460536087
S113089010E00D20404223E001230122114CDB0033
S11308A01951E31858601100D200A2186368546803
S11308B0A342E1D80B4BDC68CD005B195B68A34213
S11308C00BD2631C09D0074B9E6829001D00083514
S11308D0591888C988C5166054600121024B98478D
S11308E0F8BDC0469C0800200910000010B5012185
S11308F0014B984710BDC0460910000010B50021F7
S1130900014B984710BDC0460910000010B584B0D3
S1130910140001AB1438828B1A800294054A5A8061
S113092003911900044B9847002800D1200004B01B
S113093010BDC0460080FFFF1D14000010B584B038
S1130940140001AB1438828B1A800294054A5A8031
S113095003911900044B9847002800D1200004B0EB
S113096010BDC0460180FFFF1D14000070B50400D7
S11309700D00431E9841C0B25E220749074B9847B9
S113098029002000064B9847002803D1054BA3619A
S1130990054B636170BDC046E4550000DD0D0000E9
S11309A0791300003D0900000D09000010B5014B4A
S11309B0984710BDA91300008905890D8023DB0029
S11309C01A400A43828310007047000070B586B055
S11309D0040016001D006B46D971073303A9828BEE
S11309E00A8001224A6000224A808B60074B9847A4
S11309F0002801D006B070BD03A9054B4B808E6062
S1130A004D602000014B9847F4E7C0461D140000D8
S1130A100080FFFF1430086000207047F8B5CE4610
S1130A20474680B5814603689C46002B05D08E68F6
S1130A301C0000250127BF1A0DE0124B984718E04F
S1130A40FB18A06880464344B3420CD223682500B7
S1130A50002B0BD01C0063689342F1D8A068804639
S1130A6043449B1AF0E7A44507D02C002000064B12
S1130A7098470CBC90469946F8BD4846014B9847A8
S1130A80F7E7C046090E0000350E0000F0B5C64673
S1130A9000B582B0070044690369013398460361D5
S1130AA0037EDB0711D4037E9B070ED4002C10D0E9
S1130AB0434662689B1AA26893420AD314239C4655
S1130AC0844463460193124E14E03B7E0222134396
S1130AD03B7602B004BC9046F0BD7D69E36820001B
S1130AE09847002DF5D02C0043466A689B1AAA68E3
S1130AF09342EED30198B047237C012BEDD14346BA
S1130B006360424621000198024B9847E5E7C046DE
S1130B103D0E00001D0A000070B505000C00002801
S1130B2011D00800431E9841C0B23B220749084B2C
S1130B30984721002800074B984700232B61064B58
S1130B402B60002070BD0020EFE7C0460056000077
S1130B50DD0D00009D1900008D0A000010B5040091
S1130B60431E9841C0B253220749084B98472000BE
S1130B70074B9847002804D12000064B98470020D3
S1130B8010BD11204042FBE700560000DD0D0000BF
S1130B90631B00000D1B000010B50400431E9841A8
S1130BA0C0B261220749084B98472000074B984779
S1130BB0002804D02000064B9847002010BD1120C7
S1130BC04042FBE700560000DD0D0000631B0000FF
S1130BD0211B000070B504000D00431E9841C0B2F3
S1130BE06F220449044B984729002000034B98477F
S1130BF0002070BD00560000DD0D0000351B000014
S1130C0070B582B004000D00002824D00800431EF3
S1130C109841C0B27A221E491E4B9847237E012276
S1130C201343237626001436290030001A4B9847C4
S1130C30002812D123696B60226929003000174B08
S1130C409847237E012293432376237E00209B072B
S1130C500FD402B070BD0020DCE7237E0122934351
S1130C6023767E320A4900200A4B984712204042DC
S1130C70EFE701A80A4B9847237E02229343237689
S1130C802000084B984701A8074B98470020E0E74D
S1130C9000560000DD0D0000E50D00001D0A0000F7
S1130CA069070000791B000077070000F8B5CE46FD
S1130CB0474680B504000F009046002826D000293E
S1130CC026D01000431E9841F1221249124B984736
S1130CD00834124D2000A8470028FBD00026104BF2
S1130CE099460E4DB95D2000C8472000A84700284A
S1130CF0FBD001364645F5D30A4D2000A84700280D
S1130D00FBD030000CBC90469946F8BD0020DBE7D0
S1130D100020D9E718560000DD0D0000591300002B
S1130D204913000063130000F8B5CE46474680B56A
S1130D3004000F00904600281DD000291DD010008B
S1130D40431E9841862252000D490E4B98470026B7
S1130D5008340D4D0D4B99462000A8470028FBD0C0
S1130D602000C847B85501364645F5D330000CBCC1
S1130D7090469946F8BD0020E4E70020E2E7C0462B
S1130D8018560000DD0D00006D1300005113000023
S1130D9070B505000C00002813D00800431E9841CC
S1130DA0C0B234220849094B984728000830210072
S1130DB0074B9847002803D1064B6B60064B2B600A
S1130DC070BD0020EDE7C04618560000DD0D0000A0
S1130DD01D130000290D0000AD0C0000002800D1F7
S1130DE000BE70470368002B0AD08B420AD01B68F0
S1130DF0002B03D09942FAD1012000E00020704773
S1130E000020FCE70120FAE770B504000D00064B52
S1130E10984701235840C0B239220449044B9847EB
S1130E2023682B60256070BDE50D0000345600007A
S1130E30DD0D000003680B60016070470368002B40
S1130E4001D01A6802601800704700000300064AC7
S1130E501268002A04D0044A1068C318136070474B
S1130E600249014A1160F6E7AC080020E02C00209A
S1130E70BFF34F8F30BF704743B2002B07DB1F23F4
S1130E8018401E3B83408022520001498B5070471A
S1130E9000E100E0FA231B015843704710B5084BEA
S1130EA05A685A60074B9847074B9847074B98472F
S1130EB0074B9847FF20074B9847074B984710BDAF
S1130EC0004000415111000069110000451100006B
S1130ED09511000031110000DD0E00009022D205B2
S1130EE0137802218B431370704710B582B0EFF36F
S1130EF01083019372B69023DB051A780124A24370
S1130F001A709860D9601A001379DB07FCD4902317
S1130F10DB051869019B83F3108802B010BD000043
S1130F2010B582B0EFF31083019372B69023DB0502
S1130F301A780124A2431A709860D9601A001379B0
S1130F40DB07FCD4034B18685968019B83F31088B2
S1130F5002B010BD10000048274B5B68DB0715D4B6
S1130F60254B1B789B070ED5234903224B681A4255
S1130F70FCD1214A137802218B4313701100022201
S1130F804B681A42FCD101221B4B1A701A490122E8
S1130F904B681A42FCD1184903224B681A42FCD10F
S1130FA0154B1A7810218A431A7000225A709A60DD
S1130FB00739996101391963803159630F49D9613E
S1130FC01A62190003324B681A42FCD10A4A137898
S1130FD002210B4313700A4B08227E315A50BFF38F
S1130FE04F8FBFF36F8F0131FF315A501A60054B99
S1130FF0186000207047C0460028004004300000FC
S113100000E100E0B0080020582805D0012333286F
S113101003D00120404270470023DB000A4A9A5C57
S1131020FF2A0ED0002906D101239340074AD3603A
S113103053610020EFE701239340044A1361002029
S1131040E9E701204042E6E754560000002800404A
S1131050F0B5CE46474680B583B02F4B5A6901920E
S1131060019A5A612D4B1868431E9841C0B2E82278
S11310702B492C4B9847019B002B48D001235B4202
S11310809946294D39E04346DB00274AD3185B686B
S113109099464B46013303D0204B1B68484698477A
S11310A0019B4246A2409343019301981F4B9847EA
S11310B0013844B2631C18D0032CE4D00321424607
S11310C000270220FF260BE0013AD0B28742E0D885
S11310D0C3195B10DAB23340D900495DA142D3D0C1
S11310E08C42F1DD0132D7B2F0E70B4B5A69019221
S11310F0019A5A61019B002B09D001980B4B984728
S1131100013844B201239846631CD5D1EDE703B0FE
S11311100CBC90469946F0BD00280040B008002061
S113112064560000DD0D00005456000041300000FC
S1131130C30702D5014A024B1A6270470601010037
S1131140001C00400122014B1A7170470008004046
S1131150044BDA69F82149010A40DA6101221A6173
S11311607047C04600140040094B02221A75093228
S11311705A751900073A8B691A42FCD10722044BAD
S11311809A7519000932CB681A42FCD07047C046E0
S1131190001000407047000030B589B00C4B6A461F
S11311A032CB32C232CB32C212CB12C2009B834248
S11311B00BD001239A0069465258824206D001336B
S11311C0082BF7D1002009B030BD0023D8B2FAE7CC
S11311D07C56000010B50400164B9847052804D02F
S11311E0154A16490020164B9847E369DB070FD4CC
S11311F023689B070AD50322E3691A42FCD12368BA
S1131200022293432360E3691A42FCD10123236041
S11312100122E3691A42FCD10A4B2360C0239B02DA
S11312206360CF23A3810023A3733022A35400203F
S113123010BDC046991100003D020000B4560000E4
S1131240DD0D00000000205010B5074B9847012821
S113125007D0064A06490020064B98470120404221
S113126010BD0020FCE7C046991100009B0300005C
S1131270B4560000DD0D000070B505000C00080038
S1131280234B9847C0B2E369DB0718D443001B180B
S1131290DB00204AD3185B6A1C21194023689B0792
S11312A00AD50322E3691A42FCD12368022293433C
S11312B02360E3691A42FCD101230B43236001221A
S11312C0E3691A42FCD143001B18DA00114B9B1846
S11312D0596A21609A6A6260DB6AE3608901890F56
S11312E0A98101238B42894149420422E3691A42BC
S11312F0FCD1636A084A1A408B03134363624300B8
S11313001818C000034B1818438EEB81002070BDE1
S1131310491200007C560000FFBFFFFF70B50500B6
S11313200C00431E9841C0B2B4220449044B9847B0
S11313302C602000034B984770BDC046B456000093
S1131340DD0D0000D5110000036889B219857047CE
S11313500368188DC0B270470368187E01231840D3
S113136070470368187E8007C00F70470368187EB3
S11313704007C00F7047000070B504000D00431E05
S11313809841C0B2044A0549054B98472561290094
S11313902000044B984770BD0E050000B4560000B1
S11313A0DD0D00007912000070B50400164D431ED7
S11313B09841C0B2154A2900154EB047246920004F
S11313C0431E9841C0B2134A2900B0470322E3697F
S11313D01A42FCD123680222134323600E490232CD
S11313E003201025E3691A42FCD1638B1B090340D7
S11313F0012B07D001390029F4DCE3691A42FCD13E
S11314006583EFE7002070BDB45600002B05000093
S1131410DD0D0000FB050000FFFF0000F0B5DE4617
S11314204F464646C0B582B00500884604690600AA
S1131430731E9E41F3B2B64FB922D2003900019314
S11314401800B44EB0472869431E9841C0B2B24A4E
S11314503900B0474046431E9841C0B2AF4A3900F4
S1131460B0476B88DA0500D5E4E142465388802210
S113147052001343424653802A004146C1C9C1C2A7
S11314802F693A689146A64AA1490198A14B984709
S11314906B68012B51D00422FB691A42FCD17B6892
S11314A0A04A13407B602B885A0553D56A88D2071B
S11314B004D56A888021C9000A436A807A6A5B007D
S11314C099490B408021C9011140802212020A432C
S11314D013437B6229690B7EDBB2944A03201842D2
S11314E004D10B7EDBB2013A002AF8D13E68042114
S11314F0FA691142FCD17A8B92B2D90700D48BE0FD
S1131500930735D501233B766B88802149010B4332
S11315106B806B8886490B406B800120030013406D
S11315205842584105386B88814A13406B8002B099
S11315301CBC90469946A346F0BD4B461B01AAD558
S11315400422FB691A42FCD17A688023DB0213432C
S11315507B60A8E76888796A5B00FF221340FE3A43
S1131560024013438022D2010A4013437B62B1E755
S113157053070ED46B885B0528D46B68002B40D1CD
S11315806B881BB2002B32DB6B88694A13406B807B
S11315906EE06B68002B04DD6B88802252011343DC
S11315A06B806B881BB2002B06DB6B88604A134090
S11315B06B8002204042B6E70423FA691342FCD14F
S11315C07A68C0239B0213437B60EEE77A6A2B8818
S11315D0DB0906210B408021C9010A40F1210A439D
S11315E013437B626B88534A13406B8040E00422B0
S11315F0FB691A42FCD17A68C0239B0213437B60C7
S1131600C2E7AB681A782823FA54AB680133AB609D
S11316106B68013B6B602BE09B0729D56B68002B43
S11316203AD0520738D43601F60F013B6B60002BD9
S113163000D002E1002E0BD10422FB691A42FCD136
S11316407A688023DB0213437B606B68002B07D12D
S11316506B881BB2002B15DB6B88354A13406B80FB
S1131660AB685A1CAA602822BA5C1A7002233B7623
S1131670002080235B009B4603220421FF3B994604
S11316800226ADE00422FB691A42FCD17A68C02329
S11316909B0213437B60DFE702233B760220404238
S11316A041E70422E3691A42FCD16268C0239B0229
S11316B013436360AAE039420FD16B885B053BD4C6
S11316C06B68002B53D16B881BB2002B46DB6B88F5
S11316D0174803406B80002082E06B68002B04DD18
S11316E06B888020400103436B806B881BB2002B06
S11316F005DB6B880E4803406B80FF3070E0E369C4
S11317001942FCD16068C0239B0203436360F0E785
S1131710B4560000DD0D0000C9050000CA05000034
S11317209D050000FFFFFBFFFE070000FFFF000018
S1131730FFFEFFFFFFFBFFFF636A2888C00906273F
S113174038408027FF013B40F1273B43034363625A
S11317506B884E4803406B80002041E0E3691942E6
S1131760FCD16068C0239B0203436360AFE7AB68AE
S113177018782823E054AB680133AB606B68013BF5
S11317806B6000202CE000201E4229D06B68002BE7
S11317904CD039424AD16046C00E4F463840013BD6
S11317A06B60002B6DD100280AD1E3691942FCD18A
S11317B063688020C002034363606B68002B07D119
S11317C06B881BB2002B28DB6B88314803406B808D
S11317D0AB68581CA8602820205C1870267600206E
S11317E06B885F463B4200D1A1E62F693B7EDBB2AA
S11317F028481A4228D13B7EDBB201380028F8D1B0
S113180043465B881BB2002B00DA4AE76B88204A08
S113181013406B800520404289E6E3691942FCD1FC
S11318206068C0239B0203436360CDE726760220F1
S11318304042D5E70620404279E6012B00D00FE76D
S1131840002E00D10CE7F7E620688446E0690142E7
S1131850FCD1678BBFB24846184294D03E4200D1B7
S113186029E720766B888020400103436B806B88D6
S1131870074803406B804B461F4078427841053847
S1131880AEE7012BA4D10028A2D08EE7FFFBFFFF17
S1131890FFFEFFFFFFFF0000024B034A5A600522D0
S11318A01A60704710E000E0FFFFFF0070B50B0EF8
S11318B05E1EF6B2002B13D034000E4A0E4D80206B
S11318C040025560956013680342FCD0013CE4B2C9
S11318D0FF2CF6D13306F61A084B9C466144711866
S11318E0044B596099601900802252020B6813421C
S11318F0FCD070BD10E000E0FFFFFF00010000FF1E
S113190010B5C3689A7AD20700D410BD01229A7226
S113191003689847F9E7000030B589B01B4A6B4665
S113192032CA32C332CA32C312CA12C30100009B84
S113193083421FD001239A006C4612598A421AD05E
S11319400133082BF7D1124B9C466044800AC0B285
S1131950002818D0022812D0042812D006280CD04F
S1131960A92252000B4900200B4B9847012040420A
S113197009B030BD0023D8B2EAE7033804E00120FF
S113198002E0022000E0002040B2F1E7D05600005F
S113199000D0FFBD40570000DD0D000070B506000B
S11319A00C0008004F4B98470500F46094224E4900
S11319B001204E4B98472369DB070FD423689B070C
S11319C00AD5032223691A42FCD1236802229343D5
S11319D0236023691A42FCD1012323600122236975
S11319E01A42FCD1424AA9004B199B00D318586AE9
S11319F020602032491989005218927AE2731B8DB3
S1131A00E380012323730B330340082B42D0002BC4
S1131A1047D1AB005B199B00354AD3189A8DA2833A
S1131A201B8EE38301236372324B9C424ED0324BB4
S1131A309C424ED0314B9C424ED0314B9C424ED0B6
S1131A40AB005B1999002A4B20335B185B785BB2BF
S1131A50002B1DDB1F221A400123934080222949B9
S1131A608B50BFF34F8FBFF36F8FAA0052199200B0
S1131A701F4D2035AD180123EB56002B08DB1F2228
S1131A801A40012393400A00C021490053501360B7
S1131A90002070BD164A5318DA6AE2611B6B236298
S1131AA0C0E7042BBED1124BAA0051198900591862
S1131AB02C20081800782077096BC9B2617720338D
S1131AC0521992009B18DB7AE376ABE70E4B1E604B
S1131AD0B3E70D4B5E60B3E70B4B9E60B0E70A4B78
S1131AE0DE60ADE71919000040570000DD0D00006D
S1131AF0D05600000030004200380042004000424E
S1131B00000C004300E100E0B4080020C268032197
S1131B1013691942FCD1136802210B431360704707
S1131B20C268032113691942FCD1136802218B4353
S1131B3013607047C26813681B079B0F022B0BD0FE
S1131B4013681B079B0F09D013681B079B0F012BFE
S1131B5006D1C9B2D17603E0D16101E089B29183A3
S1131B607047C268032113691942FCD110688007C9
S1131B70C00F70470020704710B5C068094B9847E4
S1131B8004001A22FF3208490120084B9847A0009C
S1131B90001982000648203080184078054B984789
S1131BA010BDC0461919000040570000DD0D0000AB
S1131BB0D0560000790E000010B5024B1868024B95
S1131BC0984710BDB40800200119000010B5024B5D
S1131BD05868024B984710BDB40800200119000052
S1131BE010B5024B9868024B984710BDB40800200A
S1131BF00119000010B5024BD868024B984710BD7C
S1131C00B40800200119000070B50023364A13609F
S1131C10364A1370364B9847364A537802210B43A1
S1131C2053700220344B9847344B9847344B9847B1
S1131C30344B9847344B9847344B1B68002B37D0B0
S1131C40A6214020324CA04703214120A047072170
S1131C505020A04700215120A04707215220A0472F
S1131C600F215320A047FF215520A047F0215620E3
S1131C70A04700215720A04700215F20A04714213E
S1131C806020A04714216120A04702216220A047C0
S1131C9012217E20A0470520174DA84714217E203D
S1131CA0A0475120A84718217E20A0470120A8471B
S1131CB00023184A1370184A13700121174A11702F
S1131CC0174A13701431174A11601748C268938277
S1131CD0164B9847164B98471648174B9847174981
S1131CE04520174B984770BDB40B00201C0C0020F6
S1131CF01D01000000040040990700009520000029
S1131D00112E0000752000002D1F0000740C00200F
S1131D10611F00007C0C0020250C00207D0C00209D
S1131D201D0C0020200C00205C0A00205D0B00002C
S1131D30F924000054570000F52900005C57000006
S1131D40151E000010B5024B9847024CA047FDE752
S1131D50091C0000B11D000010B50D4B1A78062AAD
S1131D6005D893000B4AD3589F460B4B984710BD98
S1131D700A4B9847FBE70A4B9847F8E7094B984703
S1131D80F5E7094B9847F2E7084B9847EFE7C04659
S1131D90240C002064570000D522000031250000E7
S1131DA0B5250000F5260000F12800009129000067
S1131DB070B5114B1B78002B05D000220E4B1A7006
S1131DC00E4C0F4D0CE00F4B98470F4B9847F7E71D
S1131DD00B4B9B68002BF6D1084B1B68002B08D0DB
S1131DE02368002BFCD1AB68002BF1D0064B98473D
S1131DF0EEE7064B984770BD1C0C0020B40B002086
S1131E00F80B0020C5200000591D0000710E0000D1
S1131E1070470000F8B51D4B586099600B78002B93
S1131E2020D01A4E350034000FE02A3B042B13D87F
S1131E3005232B70154F39001548164B9847BB687E
S1131E405A1CBA605B78002B0CD03D2B07D0ECD920
S1131E505E2BEDD05F2B02D000233370EAE706231C
S1131E602370E7E70C480D4B9847002803D1084B33
S1131E709B68002B00D1F8BD074C09492000094B91
S1131E8098472000084B9847F5E7C046C40800204F
S1131E90800B0020E5010000400A0020631B0000C5
S1131EA000000020010C00005D0B000070B5064B23
S1131EB09B68002B07D0044C044D00212000A84748
S1131EC0A368002BF9D170BD800B00203102000003
S1131ED070B50F4B984700220E4B0F4CA0470F4B89
S1131EE09847040001300E4B98470500002C06D09B
S1131EF00300041924221A700133A342FBD12900E0
S1131F000020084B98472800074B984770BDC046EF
S1131F1085470000001771408935000085300000B6
S1131F20D94B0000151E0000ED4B000010B5074C06
S1131F3007492000074B984780221201682120009E
S1131F40054B98472000054B984710BDF809002021
S1131F50740C0020150A0000B9090000AD09000046
S1131F60F0B583B006006B46D971084C084D094F93
S1131F7001236A46073231002800B847002802D1FD
S1131F80013C002CF4D103B0F0BDC046E9030000CD
S1131F90F8090020CD09000030B583B03320184B78
S1131FA09847184D2B6801332B6001A8164B9847AE
S1131FB0C023DB0580229C5820328221C9058A581F
S1131FC090215B5853401C40544001A80F4B984744
S1131FD00F4900230B700F4B1B784B70E40C01234B
S1131FE05C401C408C700C4B18680C4B9847332099
S1131FF00B4B98472B68013B2B6003B030BDC046A8
S1132000FD080000B40B00206907000077070000FA
S1132010E8080020240C00207C0A0020E5010000D0
S1132020ED08000010B558200C4B98470C4A136873
S1132030013313600B4B1B78022B09D0062B0AD0FB
S11320405820094B9847064A1368013B136010BD9A
S1132050064B9847F4E7064B9847F1E7FD08000064
S1132060B40B0020240C0020ED08000035250000EE
S1132070D529000010B504493320044CA047044975
S11320805820A04710BDC046991F00003508000025
S11320902520000070B50748074B1860074D030062
S11320A020332B601221064CA04728681221A04738
S11320B070BDC046B80B0020180C00207C0A00201C
S11320C0B501000070B5684B1968684A1368002BA5
S11320D0FCD1674B644A186810601960654CE51CB4
S11320E0634B18682100644B9847002800D1BAE07C
S11320F0604B1B78012B47D0002B0FD0022BEFD164
S11321005C4B9B78002B00D1A9E0012BE8D15B4B01
S11321101B78002BE4D15A4B9847E1E7554B9B7849
S1132120584A1278D2B29342DAD05A1E9341DBB2A3
S1132130544A13701378002B1CD04E4B5B78022B3F
S11321400ED0DAB2022A06D9032B0ED0052BC7D142
S11321504D4B9847C4E7012BC2D14C4B9847BFE77E
S11321604B4B98474B4B9847BAE74B4BDB680022E5
S11321709A82B5E749484A4B98473E4B5B78012B16
S1132180AED1424B9847ABE73A4B9B78002BA7D193
S11321902B786A7812021A43AB781B041A43EB7843
S11321A01B0613433F4A934217D03F4A934223D01E
S11321B03E4A934294D12F4B5B78022B45D0DAB23E
S11321C0022A33D9032B45D0052B89D1384B9847A4
S11321D0384B9847384B984782E7264B5B78012B5E
S11321E000D07DE7274B1B78002B00D178E72A4BE2
S11321F0DB6800229A8273E71E4B5B78032B09D0BD
S1132200042B0CD0012B00D06AE72C4B98472C4BA5
S1132210984765E72B4B98471E4B984760E72A4B36
S11322209847244B98471B4B984759E7012B00D0FC
S113223056E7224B9847114B1B78002B02D0234BB7
S113224098474DE7224B98474AE7114B98471A4B5A
S1132250984745E71B4B98471C4B984740E700229B
S1132260064B1A703CE770BD7C0A0020B40B0020BA
S1132270180C00201409002031020000250C002055
S1132280AD2700001D0C002031280000212400008F
S113229045250000A9230000180A002080570000EB
S11322A0F5290000A00B0020280C00203C0C002085
S11322B061280000111E000085280000A9240000E8
S11322C0F92400003D260000E52700008D260000CB
S11322D0592500002E4B1B78002B03D02D4BDB68B7
S11322E000229A822C4B1B78DBB2012B0FD0002BDF
S11322F02CD0022B06D0032B0ED18022D202C02375
S1132300DB059A6180221201C023DB059A618022D9
S1132310D200C023DB059A61204B1B68DBB21F216E
S1132320194001228A405B09DB01C021C9058C46A2
S113233063445A611A4B1B78002B13D1194B1B7839
S1132340002B21D11522154B1A600EE0C023DB05AA
S11323508022D2005A61802212015A618022D20264
S11323605A61D9E721220D4B1A600C4B1B68DBB272
S11323701F21194001228A405B09DB01C021C905E4
S11323808C4663449A6170472222044B1A60ECE73E
S11323901D0C0020180A00207D0C0020200C0020B9
S11323A07C0C0020250C0020F8B50124144B1C7073
S11323B0144E01213000144FB847144D0221280057
S11323C0B8470027F3689F823000114EB047EB688E
S11323D09F822800B0470F4B1B68DBB21F221A40B4
S11323E0210091400A005B09DB01C021C9058C462C
S11323F063449A61084B9847084B1C60F8BDC0467B
S1132400240C0020180A0020992D0000DC0900206B
S11324105D0B0000200C0020D522000040090020A4
S113242010B51A4B1B68002B12D1194B1B78002BCB
S113243022D1184B1B78DBB2012B11D0002B0BD00F
S1132440022B11D0032B13D01348144B984710BD03
S113245000220E4B1A60FAE701220E4B1A70F3E7C2
S113246002220C4B1A70EFE703220A4B1A70EBE7B7
S11324700022084B1A70E7E7094BDA6800239382BD
S11324800548C2689382074B9847E0E7400900205B
S11324901D0C00207D0C0020DC090020990B00009D
S11324A0180A00205D0B000010B50F480F4CA04720
S11324B00F48A04700220F4B1A60C023DB0580227F
S11324C0D2005A61802212015A618022D2025A61DA
S11324D0942201219950013199500231995080225E
S11324E092035A6110BDC046180A0020990B0000DF
S11324F0DC0900204009002070B50222074B1A7045
S1132500074C03212000074B98470025E3689D8270
S11325102000054B9847054B5D6070BD240C0020DE
S1132520DC090020992D00005D0B0000400900200B
S113253070470000024BDB6800229A827047C04655
S1132540DC09002010B50248024B984710BDC04674
S1132550DC090020990B000070B503220D4B1A70A2
S11325600D4E042130000D4CA0470D4D05212800CF
S1132570A0470024F3689C8230000A4EB047EB6801
S11325809C822800B0470848084B9847084B9C6039
S113259070BDC046240C0020180A0020992D0000AC
S11325A0DC0900205D0B000084570000F5290000C1
S11325B040090020F8B51448144B9847C068144BE0
S11325C098470022134B144CA047144B9847144BC4
S11325D0D860144B9B68984214D9134F134E386833
S11325E01349B047FA256D002800124CA0473868FB
S11325F01149B0472800A0470A4B9A68084BDB688A
S11326009A42ECD3F8BDC0465C0A0020412C00007D
S1132610854700000000F83FF13B000085300000D2
S113262040090020800B0020200C0020151E000013
S113263060570000D11E00009457000010B50C4BE9
S113264098470C4B1B68DBB21F21194001228A40BA
S11326505B09DB01C021C9058C4663445A61064805
S1132660064CA0470648A0470648074B984710BDAC
S1132670AD1E0000200C0020180A0020990B000059
S1132680DC09002054570000F529000070B50F4BF9
S11326901B78002B03D00E4B1B78002B00D170BD90
S11326A004220C4B1A700C4C0A2120000B4B984747
S11326B00025E3689D822000094B984709480A4B8E
S11326C098470A4B98470A4B1D61E8E7250C002000
S11326D07C0C0020240C0020180A0020992D0000F6
S11326E05D0B000098570000F5290000D52200007A
S11326F040090020F8B51B4B1B78002B03D01A4B64
S11327001B78002B00D1F8BD1848194B9847C068B6
S1132710184B98470022184B184CA047184B984761
S1132720184B5861184B9B68984214D9174F184E90
S113273038681849B047FA256D002800164CA047A0
S113274038681649B0472800A0470F4B9A680D4BCC
S11327505B699A42ECD31248124B9847124B984744
S1132760D1E7C046250C00207C0C00205C0A002028
S1132770412C0000854700000000F83FF13B0000B9
S11327808530000040090020800B0020200C002030
S1132790151E000060570000D11E00009457000071
S11327A080570000F5290000D522000010B5002351
S11327B0064A1370064A1360064B1868064C21003B
S11327C0064B98472000064B984710BD250C002067
S11327D0800A0020200C0020A0570000151E0000D5
S11327E0F529000010B50B4B1B78002B03D00A4BC6
S11327F01B78002B00D110BD0023064A1370064A33
S113280013700648064B98470648074B9847074BF2
S11328109847F0E7250C00207C0C0020180A0020C3
S1132820990B0000A0570000F5290000A92300001F
S113283010B5074B1B78002B03D10648064B98476D
S113284010BD04480023C2689382044B9847F7E7FD
S11328501D0C0020DC090020990B00005D0B00001A
S113286010B50548054CA0470548A047012194230D
S1132870C022D205D15010BD180A0020990B0000C7
S1132880DC09002010B51048104B984720218A23FA
S11328905B00C022D205D15006220D4B1A700D48A0
S11328A00D4B98470D4A537804210B435370022073
S11328B00B4B98470B4CA0470028FCD00A4B984779
S11328C000220A4BDA6110BD54570000F5290000BC
S11328D0240C00205C0A0020990B00000004004036
S11328E099070000912A0000710E000040090020A1
S11328F0F8B5184B1B78002B27D01748174B98476F
S1132900C068174B98470022164B174CA047174B2B
S11329109847174B1862174B9B68984214D3164F6D
S1132920164E174D39002020B047FA2464002000C9
S1132930A84714492020B0472000A8470D4B9A68A7
S11329400B4B1B6A9A42EDD9F8BD0F4B98470F4BBE
S11329509847D2E7250C00205C0A0020412C000097
S1132960854700000000F83FF13B0000853000007F
S113297040090020800B002060570000151E000055
S1132980D11E000094570000612800008528000033
S11329907047000010B509480023C2689382084BB1
S11329A09847084A537802210B4353700220064B80
S11329B098470648064B984710BDC0465C0A00205D
S11329C05D0B00000004004099070000C0570000A0
S11329D0F529000010B50A20034B9847034B98478C
S11329E0034B984710BDC046990700009529000085
S11329F0A9230000F8B50378002B24D006001B4D52
S1132A001B4F2C000AE00122184B1A701749194871
S1132A10194B984701363378002B14D02A3BDAB28D
S1132A20352A0DD89300FB589F4602220F4B1A708B
S1132A30ECE703220D4B1A70E8E704232370E5E763
S1132A4000232B70E2E70D480D4B9847002803D173
S1132A50084B9B68002B00D1F8BD084C09492000A5
S1132A60094B98472000094B9847F5E76409002073
S1132A70C8570000940C0020E5010000400A002023
S1132A80631B000014000020010C00005D0B00001B
S1132A9010B5074B9A680023002A02D00120184081
S1132AA010BD0448044B984701234340DBB2F5E7CB
S1132AB0940C0020400A0020631B000010B5464A15
S1132AC01368013313600122444B1A70444B9B6812
S1132AD0002B0BD1434B9B68002B63D14248434BE3
S1132AE098473D4A1368013B136010BD404C2100D8
S1132AF03B48404B98472378012B1FD0032B25D00C
S1132B00394C1221FF3120003B4B98473B492000B0
S1132B103B4B9847334B9B68002BE2D0344C21004D
S1132B203048344B98472378052B17D0062B2DD0EB
S1132B301221FF312C48304B9847D2E780210905F8
S1132B408A235B00C022D205D150D9E78021090530
S1132B508C235B00C022D205D150D1E7002400E0D1
S1132B600124234B1B791F21194001228A405B0950
S1132B70DB01C021C9058C4663449A611221FF31EF
S1132B8019481D4B9847002CABD006E0002414E0F4
S1132B901221FF311448184B984718491248184B12
S1132BA098479EE7124C21000E48124B9847237811
S1132BB0052BD5D00124062BEAD10D4B1B791F21FF
S1132BC0194001228A405B09DB01C021C9058C46FA
S1132BD063445A61D2E7C046B40B00201C0C0020A9
S1132BE0940C0020800B0020400A0020990B000068
S1132BF06C09002031020000D50B000028000020E1
S1132C00010C0000084B984209D0084B984208D0A8
S1132C10074B984201D1074870470020FCE706485B
S1132C20FAE70648F8E7C046A00B0020280C00206D
S1132C303C0C0020DC0900205C0A0020180A00205B
S1132C400300094A904209D0084A904209D0084A30
S1132C500020934201D1074B18687047064B18684F
S1132C60FBE7064B1868F8E75C0A0020180A002006
S1132C70DC090020700C0020780A0020780C002069
S1132C800300094A904209D0084A904209D0084AF0
S1132C900020934201D1074B18687047064B18680F
S1132CA0FBE7064B1868F8E7A00B0020280C00206F
S1132CB03C0C0020700C0020780A0020780C0020C6
S1132CC010B50400284A1368013313600022274B0F
S1132CD01A70274B9847274B9860274B984720003A
S1132CE0264B9847037C002B08D04369013343618A
S1132CF0426983699A421ED3002343611D4901231B
S1132D000B731F4B1B784B7300238B73CC73220AFA
S1132D100A74220C4A74240E8C740C3119481A4B10
S1132D2098471A4B134A92689A420FD00E4A136876
S1132D30013B136010BD0F4B98680023C268938257
S1132D40134B98470122094B1A70EAE71800114BFC
S1132D5098470028EAD1074B98680023C2689382F9
S1132D600B4B9847E2E7C046B40B00201C0C002034
S1132D70052C00006C090020990B0000812C000038
S1132D80240C00207C0A0020E50100005C0A0020DD
S1132D905D0B0000631B000070B5144B984218D003
S1132DA0134B984219D0134B98421AD00022124B5D
S1132DB01A62114B1D6ACB005A1A92000F4C121959
S1132DC02A60130000225A612B6899680C4B9847BB
S1132DD070BD0C4A084B1A62EBE70B4A064B1A62A9
S1132DE0E7E70A4A044B1A62E3E7C0465C0A00209C
S1132DF0180A0020DC0900206C090020840A002045
S1132E00D50B0000780A0020780C0020700C0020FC
S1132E10F0B5D6464F4680B583B0504D00232B7095
S1132E20FE239B056B6001232B774D4B2B62022203
S1132E303823EA548123DB05EB6303215232A9547E
S1132E40484AAA6501317022A9546B676B3A8C23F6
S1132E50EA54454A0433EA5006221833EA54434BF1
S1132E60A632AB5003311832A9540432AB50C03AE5
S1132E70E023EA548022D2050433EA5009221833AD
S1132E80EA5400220433EA502C1DED18384B9A46BC
S1132E90384B9946384F17E0301C384B984700227E
S1132EA0374B00900191C847B8476060354A364BAC
S1132EB000980199C847B847A06000232373236191
S1132EC063611C34AC4220D026682849301CD047AA
S1132ED00028E1D02D4B6360012323730023236179
S1132EE0301C2B4B98470A212A4B984703006061FA
S1132EF08000C0184000284B9847224A224B1D4EA0
S1132F00B0471D4B9847A060DBE7244C244BE3609B
S1132F10244DEB60244EF360012323742B7433742B
S1132F20A360AB60B36008212048214FB847082153
S1132F302048B847204F31003800204EB0472900C0
S1132F401F48B04721001F48B047002138001E4BDE
S1132F50984703B00CBC91469A46F0BD840A002001
S1132F60000040400000344300009643000020412C
S1132F702D300000F13B000085300000F5470000D3
S1132F808084AE402549922449922C4096980000B2
S1132F9055300000EB0E0000854700003C0C00207B
S1132FA0C12C0000280C0020A00B0020940C002051
S1132FB0B5010000800B00205C0A0020010C000019
S1132FC0180A0020DC090020992D00008446081C02
S1132FD06146FFE71FB500F0D9F8002801D40021AD
S1132FE0C8421FBD10B500F06BF84042013010BD5F
S1132FF010B500F0CBF8002801DB002010BD012043
S113300010BDC04610B500F0C1F8002801DD002055
S113301010BD012010BDC04610B500F077F800289F
S113302001DC002010BD012010BDC04610B500F029
S11330306DF8002801DA002010BD012010BDC04643
S113304010B50023002802D001F082FC431C1800B4
S113305010BDC0469E2110B5C905041CFFF7E6FF4C
S1133060002803D1201C00F06FFA10BD9E21201C03
S1133070C90500F0CDF800F067FA80231B069C46D2
S11330806044F2E770B500220C4B04000D0001F01F
S113309037FC002804D12000290001F03FFB70BD5B
S11330A0064B00222000290001F022F801F036FB33
S11330B080231B069C466044F1E7C0460000E041C3
S11330C070B5420045024E024C00C30F6D0A120E49
S11330D0760A240EC90F0120FF2A06D0FF2C03D044
S11330E0A24201D1B54206D070BD002DFCD1FF2C07
S11330F0FAD1002EF8D18B4206D00120002AF3D158
S11331002800451EA841EFE70020EDE7F0B5420096
S113311045024C02C30F48006D0A120E640A000EE9
S1133120C90FFF2A1ED0FF2821D0002A0AD16E42DF
S11331306E41F6B200280FD1002C0DD10020002DD5
S113314009D005E0002801D1002C01D08B4211D018
S1133150012158420843F0BD002EF7D00120013967
S11331600843F8E7002DDED002204042F3E7002CAC
S1133170DBD0F9E78242EBDC04DBA542E8D800208F
S1133180A542E8D20121581E0843E4E7F0B5420005
S11331904D024C004602760A120EC30F6D0A240E2D
S11331A0C90FFF2A16D0FF2C18D0002A0AD170426A
S11331B07041C0B2002C15D0002805D0012001397F
S11331C00843F0BD002C13D0994214D001205B4277
S11331D01843F6E70220002EF3D1E4E70220002D85
S11331E0EFD1E2E7002DE7D10020002EE9D0EDE792
S11331F0002DE9D1EAE7A24206DCDFDBAE4203D8C8
S11332000020AE42DAD3DCE7012049420843D8E784
S1133210F0B54F46D64646464400C0B5C20F4702F5
S11332204802400A844666467B0A4800C90F9A460B
S1133230240E1500DB00000E8946F600FF2800D19D
S11332408FE001214F464F403900914266D0221A47
S1133250002A00DC9DE000283DD1002E00D18BE047
S1133260511E002900D0B5E001249B1B5A0144D50E
S11332709B019F09380001F04DFB053887408442CB
S113328000DD96E0041B3A0020200134E240041BD8
S1133290A7403B005F1EBB41002413435A0704D0E0
S11332A00F221A40042A00D004335A0127D50134CE
S11332B0FF2C00D179E001229B015B0AE4B22A4091
S11332C05B02E405580AD207204310431CBC904615
S11332D09946A246F0BDFF2CE0D08021C9040E43DC
S11332E01B2A7BDC31002020D140821A9640721EBA
S11332F096410E439B1B5A01BAD45A07D0D10122DE
S1133300DF082A40FF2C33D1002F00D1A8E080230E
S1133310DB033B435B025B0AFF24D1E7211A00294C
S11333204CDD00282AD0FF2CB8D08020C0040643EE
S11333301B2900DDAFE030002027C840791A8E40F9
S1133340711E8E4106439B195901D6D50134FF2CB9
S113335000D185E001227A491A405B080B401343EF
S11333609CE7002E00D070E76BE73B1EC5D100221E
S11333707B025B0AE4B2A3E714008FE7002E4DD072
S1133380481E002857D19B1901245A01B5D502249F
S1133390E0E7002A25D1621CD2B2012A72DD9F1B0C
S11333A07A0135D5F71A0D0064E7012200232A407B
S11333B086E73B00634A241A13406FE700296CD167
S11333C0611CC8B201284EDDFF2949D09B195B0856
S11333D00C0063E7FF2A41D00A0081E701269B1B0A
S11333E089E7002C1CD0FF2821D08024E404524219
S11333F023431B2A00DD96E01C002025D440AA1A92
S113340093405A1E93412343F31A04000D002DE701
S1133410002F00D02EE700220024A9E70C003DE78E
S1133420002B58D0D243002AEED0FF28E1D133003C
S1133430FF240D0032E7FF2910D0010078E7002BAC
S11334406ED0FF24002E00D128E780225146D203FB
S1133450114203D06146114200D13300FF241DE71D
S1133460FF2400232CE7002CE9D1002B63D0002E8D
S113347000D113E79B195A0100D43EE7314A0C00EE
S113348013400BE7002C1ED1002B2FD1002E4FD060
S113349033000D0002E7012655E7002C1FD1002B55
S11334A043D0C94300290BD0FF2839D01B2944DC61
S11334B01C002027CC40791A8B40591E8B41234392
S11334C09B19040040E7002B1AD1002E24D1802739
S11334D00022FF031BE7330004000D00DEE6FF2893
S11334E01ED08024E40449422343DFE7002E00D1A8
S11334F0D4E69F1B7A0100D437E7F31A0D00CDE61A
S1133500FF24002E00D1C9E680225046D203104287
S1133510A4D060461042A1D133000D00FF24BDE6C3
S11335203300FF24BAE601236EE733000400B5E656
S1133530002700221CE73300B0E60123C0E7C046A1
S1133540FFFFFF7DFFFFFFFB41024300C20F490A5B
S11335501B0E00207E2B0DDD9D2B0CDC8020000437
S11335600143952B0ADC9620C31AD9404842002A0D
S113357000D108007047034BD018FBE7963B9940F5
S1133580F4E7C046FFFFFF7FF0B557464546DE46E9
S11335904E46E0B54C000E0387B0834692461D00AC
S11335A08046360B640DCF0F002C4FD06F4B9C42DE
S11335B035D08023420F1B04F6001343334399464E
S11335C0C30098466A4B00269C4600236444039338
S11335D02B031B0B9B466B00ED0F50465B0D0195B7
S11335E05ED0624A934253D05A46D1008022400FA3
S11335F0120402430A4393465246D1005C4A94465D
S1133600002263443800684084460290E41A16435A
S11336100F2E00D9B4E0574BB6009B599F460300C8
S1133620334399466CD1002398460233082603930A
S1133630CEE7CB464146039A0197022A65D1019B06
S11336404A4C9C460023002298466BE00300334317
S113365099464ED0002E00D1BCE1300001F05AF959
S113366003000B3B1C2B00DDACE11D22D31A5A4690
S11336700100DA4008398E401300334399465B4613
S11336808B40984600233C4C0026241A03939FE762
S113369051465A46114329D1002293460232B1E7DA
S11336A0594601431ED05B46002B00D19EE158468B
S11336B001F030F903000B3B1C2B00DD8FE102000D
S11336C05946083A91408B461D21CB1A5146D940A0
S11336D00B0059460B4351469B469140264B002212
S11336E01B1A8FE7002301229B468BE751460322D6
S11336F088E700239846013304260024039367E7F0
S11337000323B14603930C2662E7032A00D15CE24B
S1133710019B012A00D0E4E113409C4600230024CD
S11337200022984600211203130B0A0D12051A43B6
S11337302305124C40462240134362465B00D207E5
S11337405B081343190007B03CBC90469946A24657
S1133750AB46F0BD002380229C4612039846034CDE
S1133760E0E70023014C00229846DBE7FF07000056
S113377001FCFFFFA05800000DFCFFFFFFFF0F80BE
S1133780D94500D939E100D134E1002346464D46FC
S11337909A46013C5B460A0E1B021A430B02170CA5
S11337A0039313041B0C3900280090460193FDF782
S11337B09CFB0200019B83465A4328003900914632
S11337C0FDF7AEFB350C09040D43A9450DD95B4645
S11337D04544013BA84500D93AE1A94500D837E161
S11337E002235B429C464544E3444B46EB1A3900B2
S11337F018000493FDF779FB019B0500434339004E
S113380004989946FDF78CFB330409041B0C0B4305
S1133810994509D943446A1E984500D91AE1994546
S113382000D817E1023D43444A469B1A5A46120403
S11338302A4303999346100C0A0C914609045A46EC
S1133840090C4E460D001204120C454305915143D8
S11338507243704352190E0CB218954203D9802555
S11338606D02AC466044150C09041204090C2818B6
S11338705218834200D2CEE000D1C8E01D1A53464C
S11338809E1AB24592415242AB1A9A46984500D1CB
S113389017E139001800FDF728FB019B050043439D
S11338A0390050460493FDF73BFB04980B04310C9C
S11338B01943884209D941446B1E884500D907E160
S11338C0884200D804E1023D4144049BCB1A18000D
S11338D039000493FDF709FB019B824643433900F9
S11338E004980193FDF71CFB01980B043104090CA7
S11338F0194388420DD953464144013B884500D9B8
S1133900E8E0884200D8E5E002235B429C4641445B
S1133910E244019B2D04CE1A51462943059D4F468E
S11339202A000B04080C1B0C5A4345437B43784381
S11339305B19170CFB189D4203D980256D02AC4618
S113394060441D0C12041B04120C28189B18864298
S113395000D293E000D18EE001231943A04BE31879
S1133960002B00DC99E04A0700D09EE05A46D201C1
S113397006D55A469B4B1A4080239346DB00E31836
S1133980994A934268DD0123029A984C1A40002315
S1133990944698460022C5E680224B461203134201
S11339A00AD05B46134206D11A431203120BAC46EB
S11339B088468E4CB6E64B461A431203120BBC469D
S11339C08A4CAFE603005A46283B9A4000239146AE
S11339D0984657E6584600F09DFF203040E6030025
S11339E05246283B9A400021934677E600F092FF26
S11339F020305FE6884500D2C7E64B46DE075D0807
S1133A0043465B081E434346DB079A46C2E600254D
S1133A10924500D333E7039E5946B446E244B24587
S1133A20AD416D424544EB180139984507D298429F
S1133A3000D97FE000D1BCE01D1A8B461FE79845F2
S1133A40FAD1039D5545F2D943468B461D1A16E714
S1133A509B46CAE61500E7E65A46C90852070A43D8
S1133A605B0590465C0D5A460123029952021940A7
S1133A70120B8C4656E6002B00D16FE746444A1ED3
S1133A80B04529D91100864200D065E7039A9342D4
S1133A9000D061E762E7012149420120C21A382AB5
S1133AA021DD029B03409C4638E60F220A40042A8B
S1133AB000D15BE70A00111D9142924152429344A6
S1133AC054E7474BE318002BE5DD01225242F2E7AD
S1133AD01D00FAE69A461CE7B04239D86ED01100B0
S1133AE03AE702933AE71F2A3CDC20239B1A0C0096
S1133AF05846994098404B1E99415B46D440D34068
S1133B00204308431A00430709D00F230340042B22
S1133B1005D00100081D88429B415B42D218130264
S1133B203AD50123029A01241A4000239446984668
S1133B300022F7E5022149428C46039DE344AC464A
S1133B40E244AA45AD416D424544ED182D1A96E66E
S1133B508A1E03994D008D42894149424144761899
S1133B6003958FE71F204042C31A5846D8400300EC
S1133B70202A28D040205D46821A954029434A1EB7
S1133B8091411943072300220B4009D00F2300223F
S1133B900B400800042BBDD1010053075202120B45
S1133BA0C9081943012388460299002419408C4608
S1133BB0B8E55245BED88B46002560E6039D9D427C
S1133BC0C6D3110062E70025D8E780225B461203C2
S1133BD01A43019B1203120B9C468846034CA1E531
S1133BE0FF030000FFFFFFFEFE070000FF070000C9
S1133BF0F0B557464546DE464E46E0B50C039846BA
S1133C004E00230B87B0070092469B46760DCD0FDE
S1133C10002E6BD06D4B9E4235D080245B46420F04
S1133C202404DB0014431C43C3009946684BA34699
S1133C309C46002300276644029343461C035A0013
S1133C40DB0F5046240B520D984600D176E05F4BB3
S1133C509A426DD08023410F1B040B435C49E4005E
S1133C608C461C43C300002062444146B618694098
S1133C70721C0191944607430F2F00D9B0E0554AB6
S1133C80BF00D25997465B460343994600D087E06C
S1133C9000239B46023308270293CEE74246019253
S1133CA0022867D0032800D10EE2012800D062E187
S1133CB0002300240022994601990140CDB200213D
S1133CC012030B0D120B1B051343434A2405134027
S1133CD01C436400ED0764082C434846210007B0E8
S1133CE03CBC90469946A246AB46F0BD0343994678
S1133CF04FD05B46002B00D189E1584600F00AFE04
S1133D0003000B3B1C2B00DD7AE11D22D31A3A0081
S1133D1001005C46DA4008398C4013008F4023438D
S1133D209B46B94600232D4E0027361A029384E79A
S1133D30534623432AD10024022096E753462343C3
S1133D4020D0002C00D157E1200000F0E3FD030057
S1133D500B3B1C2B00DD49E11D21CB1A514602000F
S1133D60D9405346083A944093400C431B4A121AD4
S1133D7000207AE70125019B144C1D4000230022FA
S1133D8099469CE70024002201206EE75346032055
S1133D906BE700239B4601330427002602934CE77C
S1133DA0032381460C27029347E780220023002542
S1133DB012039946054C82E75C464B4602986FE72E
S1133DC05C464B46019502986AE7C046FF0700002F
S1133DD001FCFFFFE0580000FFFF0F800DFCFFFF18
S1133DE04A464946170C1A0C1B041B0C08041900FC
S1133DF0000C41431500884619007D43794303951F
S1133E0089462900150045434D44029545462D0C2D
S1133E10AA46029D5544A94506D98A4680214902ED
S1133E208946CA4451460391290C04914146090428
S1133E302D04090C88462900250C24044144240C33
S1133E400591210041438846210079438A4668430D
S1133E50414650448146080C48446F43824503D987
S1133E608021490289464F44010C8946390049445E
S1133E70029141460F0404993F0C88460004C0197E
S1133E8080444146049159460F0C0904090C8846A4
S1133E9059438A4639005143894641464A4351466B
S1133EA0090C8B467B43D2185A44934203D980238E
S1133EB05B029B46D94451460904090C8A46414693
S1133EC061437C43130C12044B445244A1468A467A
S1133ED03C0041466C434D4351464D440F0C7D1903
S1133EE0A94503D98021490288464444049F039983
S1133EF0B84641448B4683458041414288465146F9
S1133F0008042F04000C3F185846029910188946DB
S1133F10904292414F44BA46524299469346C24413
S1133F20D144CB448F42BF41C245894199459B410D
S1133F30934592417F4249422D0C52420F435B42CA
S1133F4013437F19FF185B463C19DB0D059A640285
S1133F501C43430213435D1EAB415A46C00D034349
S1133F6052021343E20156D501205A080340134379
S1133F70E207134364085A48604400284DDD5A0799
S1133F8009D00F221A40042A05D01A1D9A429B41D7
S1133F905B42E4181300E20104D58020514AC000BA
S1133FA014406044504A904200DDE3E60125DB08FA
S1133FB062071A436402019B9146220B4405640D77
S1133FC01D407CE6802259461203114208D0144257
S1133FD006D122431203120B45469946434C6EE622
S1133FE05B461A431203120B404C68E60300544626
S1133FF0283B9C400023B9E600F08CFC2030A6E668
S11340000300283B9F400023BB4699468AE600F004
S113401081FC203074E6B446ADE701252A1A382A1B
S113402006DD019B00241D4000230022994646E63C
S11340301F2A21DC20252000AD1A1E00AB40A84019
S1134040D6405D1EAB4130431843D440430709D0EA
S11340500F230340042B05D00300181D98429B41F5
S11340605B42E418230221D50125019B01241D4054
S113407000230022994622E61F2521006D42281ABA
S1134080C1400800202A1DD05F35AA1A944023435A
S11340905C1EA341072503431D400022002D09D0C7
S11340A00F2200241A401800042AD6D10300650701
S11340B06402220BDB082B4301259946019B002453
S11340C01D40FCE50024E2E780220125120322437F
S11340D001991203120B0D409946044CEFE5C046BA
S11340E0FF030000FFFFFFFEFE070000FF070000C4
S11340F0F0B54646D6464F460C03C0B5CD0F4E002C
S1134100610A440F0C43C1005800400D84468A469E
S11341100F001903500F490A0143C648760DA846FB
S1134120DB0FD200844500D1D8E001204340AB42EC
S113413000D1A6E06046351A002D00DC05E1002818
S113414010D10B00134300D1D7E06B1E002B00D01D
S11341504BE153469F1ABA458041641A4042241ADF
S113416001261EE0B34B9E4248D080231B04194312
S1134170382D00DD19E11F2D00DD4CE120230F0057
S11341805B1B10009A409F40E840531E9A41E9404F
S1134190074317435346DF1B611ABA45A4416442DF
S11341A00C1B230200D4C5E06402650A002D00D173
S11341B0F6E0280000F0AEFB0300083B1F2B00DDF7
S11341C0E9E020223C00D21A9D40D4409F40254380
S11341D09E4200DDDBE09E1B731C1F2B00DD0AE109
S11341E020223800D21A290097402C009140D84050
S11341F07A1E9741DC40002601430F437B0709D018
S11342000F233B40042B05D03B1DBB42BF417F42E3
S1134210E4191F00230225D5864B01369E4200D1A6
S1134220AFE0854B01251C4043466207FF0864024A
S113423076051743240B760D1D4000212403230B20
S11342400C0D7E4A24051C431440330523435B00B4
S1134250ED075B082B43380019001CBC90469946B7
S1134260A246F0BD012543466207FF081743E40850
S11342701D40704B9E4236D024037605240B760DE8
S1134280DBE76346F31A002B00DC94E06046002869
S113429035D068488642B1D080273F043943382B53
S11342A000DCFDE00A43170000217A1E97415744C1
S11342B057458041091944420C1923023AD55D4BF4
S11342C001369E4200D14BE101225B4B1C407B082E
S11342D017401F43E207174364088FE708001043A1
S11342E000D024E721E723003B4300D1B9E1802239
S11342F0120314432403240B9FE72E007EE70800D7
S1134300104300D1CAE0581E8446002800D0E7E0DC
S11343105244524580416418404224181700012633
S1134320230207D50226CFE764462C4300D1B3E12C
S11343302C0067467B0700D062E76307FF081F4332
S113434001254346E4081D4093E7002D78D1751CF0
S11343506D056D0D012D00DCF2E05046801A82459A
S1134360BF41651A7F42ED1B8446280200D48CE0CD
S11343705046171ABA4292410C1B5542651B984687
S113438014E70125434600241D40002755E72A4C25
S1134390F61A2C4032E73D0028388540002717E7FD
S11343A0380000F0B7FA203006E70A43170000216E
S11343B07A1E9741EEE6002B00D0E5E0731C9C4684
S11343C05B055B0D012B00DC9FE01A4B9C4500D183
S11343D0C5E0524452458041641840422418E7071E
S11343E0520817436408664608E71248854200D11C
S11343F085E01D00BCE629001F3EF140202B00D1C2
S11344007FE04022D31A9D402F437D1EAF410024FC
S11344100F4300268EE72B000F00203BDF40202DAA
S113442071D040235D1BA9400A43511E8A410021DB
S11344301743AFE6FF070000FFFF7FFFFFFF0F807A
S1134440002E3ED0B34EB44545D0802636046D428E
S11344503443382D00DDA8E01F2D00DD1FE12026A8
S113446027005046761BB740E84007435046B0400B
S1134470461EB041EC403843171ABA4292410C1B15
S11344805242A41A664698468BE6644667462C4315
S113449000D08BE6002500260027EAE61E00ADE6E4
S11344A01F2B60DC2027F81A0F0084468740100079
S11344B0D840074360468240501E8241D94017438A
S11344C0F5E626005046064305D0ED43002DD3D033
S11344D0904EB445BDD10C001700664698468DE653
S11344E08C4883420BD06346D9E6002D00D096E079
S11344F00800104300D1E2E00C0017009846854EF6
S11345007CE6002580E700218EE723005046034324
S1134510002E00D0A8E0002B00D1DEE00B001343F6
S113452000D16BE65244524580416418404224183D
S11345301700230200D4FDE6774B66461C405DE677
S1134540250050460543002ECFD1002D4FD10C003D
S1134550144300D1A0E00C00170098464EE66646CE
S11345600024002785E61F000800203FF8400700CC
S1134570202B00D18EE04020C31A99400A43511EDB
S11345808A410021174392E6002E14D1260050469A
S1134590064362D0DB43002B5CD1871897429241DB
S11345A064185242A418664687E650462043441EC7
S11345B0A041002460E7574EB4454ED0802636040F
S11345C05B423443382B00DD7FE01F2B00DD8BE0A2
S11345D0202627005046F61AB740D84007435046D5
S11345E0B040461EB0410743DC40BF18D6E70D007B
S11345F0154300D102E65046801A8245BF41651A30
S11346007F42ED1B8446280200D48DE65046171ADB
S1134610BA4292410C1B5242A41A9846EEE50D0090
S1134620154300D16BE750466707C0080743802055
S1134630E4080003044207D0CD08054204D12C004D
S11346409846D70849070F437B0FE4001C43FF003B
S1134650304ED3E52F4EB445B4D10C001700664656
S1134660CCE500270024E8E5002B39D00B001343E8
S113467000D144E7C008670707438020E40800032B
S11346800442E1D0CB080342DED1D70849070F43E7
S11346901C00D9E7002171E700250027E9E52E0079
S11346A02700203EF740202D2FD04026751BAC401C
S11346B050462043441EA04100243843DCE68024B5
S11346C000252403134E0027D3E55046204307005A
S11346D0781E87410024BF1860E70C0017008DE5A1
S11346E00C0017000B4E89E51E002700203EF74002
S11346F0202B0CD04026F31A9C4050462043441EE5
S1134700A04107430024BF1848E70024D0E7002451
S1134710F3E7C046FF070000FFFF7FFF30B5134DEE
S11347200A034B00120B5B0DC90F0024AB4210DDD2
S11347300F4CA3420FDC80240E4D64032243ED1A78
S11347401F2D0BDD0C48C31ADA405442002900D156
S11347501400200030BD094BCC18FAE7084CE8409F
S1134760A44663449A400243EFE7C046FE030000B8
S11347701D0400003304000013040000FFFFFF7F4A
S1134780EDFBFFFF10B5041E28D000F0C3F8154B55
S1134790154A1B1AD21A1F2A15DD144AD21A94403C
S11347A0002224035B05240B5B0D0021100024036D
S11347B00A0D240B120522430D4C1B052240134302
S11347C05B00590810BD210091400A000B21081A12
S11347D0C4405B052403240B5B0DE6E7002300249F
S11347E00022E2E71E04000033040000130400006A
S11347F0FFFF0F804100090E4B1C70B5DBB246026F
S1134800750AC40F012B14DDE0239B006D07360BE2
S1134810CB1800210A0D280012051C4D32435B05FC
S11348202A405B0813435B00E4075B082343190039
S113483070BD002914D1002D1ED0280000F06AF8A4
S11348400A281CDC0B232A001B1ADA400300153348
S11348509D400F4B12031B1A5B05160B5B0DD8E72B
S1134860002D06D0320B802636036D071643094B04
S1134870CFE7084B0026CCE700230026C9E7030056
S11348802A000B3B9A400025E3E7C046FFFF0F8058
S113489089030000FF0700008446101C62468C4612
S11348A0191C634600E0C0461FB500F00FF900284C
S11348B001D40021C8421FBD10B500F069F8404280
S11348C0013010BD10B500F001F9002801DB002013
S11348D010BD012010BDC04610B500F0F7F8002847
S11348E001DD002010BD012010BDC04610B500F050
S11348F089F8002801DC002010BD012010BDC0464D
S113490010B500F07FF8002801DA002010BD012066
S113491010BDC0461C2101231B04984201D3000C86
S113492010391B0A984201D3000A08391B0998421E
S113493001D30009043902A2105C40187047C04634
S11349400403020201010101000000000000000054
S1134950414208401C2101231B04984201D3000C4E
S113496010391B0A984201D3000A08391B099842DE
S113497001D30009043902A2105C401A7047C046F2
S11349801B1C1D1D1E1E1E1E1F1F1F1F1F1F1F1F42
S1134990F0B54F464646D6465C00C0B51F03DB0F54
S11349A09A46174B0E034D0084468046360B6D0D18
S11349B0C90F91463F0B640D01209D4208D09C42D3
S11349C001D0A5420BD01CBC90469946A246F0BD2E
S11349D063463343F7D1AC42F5D13A43F3D10120D6
S11349E0BE42F0D1C845EED1514507D0002DEAD1E1
S11349F063461E433000461EB041E4E70020E2E770
S1134A00FF070000F0B54546DE4657464E46E0B582
S1134A101F033D0B2C4F0E034C00AB465D00844638
S1134A20360B640DC90F90466D0DDB0FBC422AD0C6
S1134A30254FBD422DD0002C0FD1304307008146B5
S1134A4078427841C0B2002D17D15F463A4314D161
S1134A504B460020002B0AD006E0002D02D1584618
S1134A60024301D0994218D04842012108433CBC7A
S1134A7090469946A246AB46F0BD0028F2D00120EC
S1134A80013B1843F3E737000743D1D002204042EB
S1134A90EDE75F461743CED0F8E7AC42E4DC03DA37
S1134AA0481E01210843E2E75E45DDD806D0002018
S1134AB05E45DCD20123481E1843D8E7C445D3D849
S1134AC00020C445F6D3D2E7FF070000F0B54E46F8
S1134AD04546DE4657465C00E0B51F03DB0F9946AA
S1134AE02A4B0E034D00C90F8446360B6D0D8B46C1
S1134AF090463F0B640D9D4220D0244B9C4222D013
S1134B00002D12D1304343424341DBB2002C1FD06D
S1134B10002B0CD04B460120013B034318003CBC46
S1134B2090469946A246AB46F0BD002C16D0CB4524
S1134B3017D05B46594201230B43EFE731000223B0
S1134B400143EBD1D9E7390002231143E6D1D7E77A
S1134B503A43DDD100230028E0D0EAE73A43E6D126
S1134B60E7E7A542E5DC05DBBE42E2D807D0002337
S1134B70BE42D3D25946012301390B43CEE7C44583
S1134B80D7D80023C445F5D3C8E7C046FF070000C3
S1134B9070B50D4E0D4D0024AD1BAD1005D0A30016
S1134BA0F35801349847A542F9D100F0BBFE084EF2
S1134BB0084D0024AD1BAD1005D0A300F3580134FB
S1134BC09847A542F9D170BD305900003059000012
S1134BD0305900003859000010B5034B0100186823
S1134BE000F00EF810BDC0463C00002010B5034B89
S1134BF00100186800F09AFB10BDC0463C0000207C
S1134C00F0B557464546DE464E46E0B50D000B3539
S1134C1083B00700162D00D89FE007239D4300D5DD
S1134C20C4E0A94200D9C1E000F0E0FAF823FF3360
S1134C309D4200D88FE2680A00D1BBE0042800D965
S1134C4062E138239846A80980443930C100D24E25
S1134C5071180839CC68A14219D0032362689A43B9
S1134C601300521B0F2A00DDAAE0002A00DB88E0B3
S1134C7003239C4608E06246636893435A1B0F2A49
S1134C8000DD9DE0002A7CDAE468A142F3D1320021
S1134C9034690832944200D190E103236168994356
S1134CA08946491B0F2900DD62E1726132610029E6
S1134CB000DB87E0B94A4B46914500D930E1DB0877
S1134CC0FF3A9910FF3A8A40DB0071689B190A4346
S1134CD099687260E360A1609C601300CC6001215C
S1134CE08210914099426FD80B4205D10322904320
S1134CF0490004300B42FBD003239846C300994675
S1134D00B144CC4682466346DC68A44507D157E1EA
S1134D10002A00DB66E1E468A44500D150E1424684
S1134D20636893435A1B0F2AF2DD01208046611900
S1134D3005436560A068E5680836C560A86040461C
S1134D40F160B16010434860CE608E603800E2507C
S1134D5000F054FA2000083021E0102926D8380049
S1134D6000F044FA1025182302208B4EF3181A0081
S1134D705C68083A944200D12EE1032362689A43A6
S1134D801300E268A168CA6091600122E3185968BF
S1134D9038000A435A6000F031FA2000083003B0AA
S1134DA03CBC90469946A246AB46F0BD0C2300207D
S1134DB03B60F4E780213F2340208900984646E782
S1134DC0404664E74B46E0E70323B46862689A43CD
S1134DD09046AA4203D3531B0F2B00DD86E0230029
S1134DE043446F4A01936F4B93461B681268EB1858
S1134DF0013200D168E16C4A944663441B0B1B03E7
S1134E0000930099380000F001FA03008146013351
S1134E1061D0019B834200D9FFE0644B009A9A461B
S1134E201B689C46534662441A60019B11008342EE
S1134E3000D155E15B461B68013300D16CE14B4660
S1134E40019A9B1A59185346196007234A4613407E
S1134E5000D124E1082189465549D21A9144CB1A3C
S1134E60009A38004A441105090D5B1A19009B4643
S1134E7000F0CCF9431C00D142E14B46C01A012397
S1134E805844184353461B685B4419005346196041
S1134E904B46B3605860B44213D043460F2B00D83E
S1134EA0E8E04346072260680C3B9343063A02401D
S1134EB005201A436260E218506090600F2B00D9FD
S1134EC022E13C4B1A68914200D919603A4B1A68A6
S1134ED0914200D919600323B46862689A43531B52
S1134EE0954200D9C9E00F2B00DCC6E0012229005D
S1134EF013431143651961603800B5606B6000F0BD
S1134F007DF9200008304AE714287AD9542800D9BA
S1134F10BAE06E239846280B80446F30C10096E6B1
S1134F205A0A042A73D9142A00D9D0E011005C3239
S1134F305B31D20008235B429C46B218944463461A
S1134F409A6803239846944500D1ABE043465168E0
S1134F509943894500D395E092689445F6D1634618
S1134F60DA6873686146E260A1609460CC60B6E67A
S1134F70012360191D43656070613061C260826005
S1134F801A004B460A4342603800E15000F036F9FB
S1134F902000083003E7C04668040020FF01000039
S1134FA070080020D80900200F100000A809002074
S1134FB008100000D0090020D409002073688EE690
S1134FC008239B46073BDC449B46DA44434652464F
S1134FD0134200D097E637E0DC680230A34200D1E8
S1134FE055E6CAE60122E318596838000A435A60B4
S1134FF0E368A268D3609A6000F000F920000830EA
S1135000CDE65B23984680445C30C1001FE69A09D4
S1135010110039323831D2008CE7B44200D05AE75B
S11350204F4B009A9A461B689C46534662441100B3
S11350301A60FFE608235B429C46E1444B469B68AA
S11350400138994500D084E043460342F2D17368A5
S11350508B4373604900994200D9B5E6002900D119
S1135060B2E650460B4200D048E6490004300B42F9
S1135070FBD043E601234A465360380000F0BEF8F3
S113508000208CE694466AE7AA235B00984211D874
S1135090DD3B9846E80B80447830C100D7E5802397
S11350A05B01DDE68910023B8B4072681343736039
S11350B0624657E72B4B98421CD87C239846A80C91
S11350C080447D30C100C2E51033009399E6542A30
S11350D026D84B461A0B11006F326E31D20029E7E5
S11350E01B0500D0A6E60120009BB268434403439D
S11350F05360E6E6FE217E237F2089009846A6E5DC
S1135100002301209B46BDE621003800083100F051
S11351100DF953461968D4E65B464A461A6094E68C
S1135120AA2149008A4206D84B46DA0B110078328C
S11351307731D200FEE60B498A4206D84B469A0CD8
S113514011007D327C31D200F4E6FE227E219200F1
S1135150F0E673687EE72B00E808083305E6C046EE
S1135160A809002054050000F0B505000F2A2FD926
S11351700B0003439B0734D116000C000300103EC0
S1135180350901352D01451927681F6067685F607F
S1135190A7689F60E7681034DF6010339D42F3D145
S11351A00F239E431036851989191340032B1AD9EE
S11351B01E1F0023B4080134A400CF58EF50043359
S11351C0A342FAD10324A643331D2240C918ED1883
S11351D0002A05D00023CC5CEC5401339342FAD16D
S11351E0F0BD0500F6E71A00F2E7C04610B5024824
S11351F000F07AF910BDC046C40C002010B5024876
S113520000F074F910BDC046C40C0020002370B532
S1135210064C050008002360FBF718FE431C00D071
S113522070BD2368002BFBD02B60F9E7D80C00205D
S1135230034B10B5002B02D0024800F005F810BD56
S1135240000000005952000010B5010000230022A4
S1135250002000F04DF910BD70B5094B094CE41A5B
S1135260A41009D0084AA518AD00ED182B68013C1C
S11352709847043D002CF9D100F05EFB70BDC04698
S11352804459000048590000FFFFFF3FF8B50C00E7
S11352900600FFF7ABFF204FBB685D6803239D4307
S11352A01E4B2C1B9C466444240B1D4B013C2403C5
S11352B09C4207DD00213000FFF7A8FFBB685B19A3
S11352C0984204D03000FFF799FF0020F8BD6142F6
S11352D03000FFF79BFF431C0DD00122BB682D1B40
S11352E015435D600F4B30001A68141B1C60FFF7F8
S11352F085FF0120EAE700213000FFF787FFBA6845
S1135300831A0F2BDEDD08490968401A0549086035
S113531001210B435360D5E768040020EF0F000020
S1135320FF0F0000A809002070080020F8B5040051
S11353300D1E3CD0FFF75AFF2900083948680123A5
S1135340050003269D434A199C46614F5368B343A5
S1135350BE68B24256D06646536006420AD13E0049
S113536008680836091A2D188868B04265D0CE68D6
S1135370C660B0600120D6187668064233D0554B1B
S1135380284348604D519D4212D8ED08FF3BAA10B6
S1135390FF3B93407A68ED0013437B60EF19BB68D1
S11353A0CF608B60B960D9602000FFF727FFF8BD9C
S11353B0680A042850D8A809020039303832C000DD
S11353C0381808388368032698424CD05A68B24388
S11353D0954230D29B689842F8D1C368CB6088600C
S11353E09960C160E0E7ED183B4E9368B34242D048
S11353F0D2682843DA609360364B48604D519D4231
S1135400D6D8C2E76246EB18024206D10A68891A66
S113541088689B18CA68C260906001221A434A6077
S11354202E4AB96012689342BED32D4B20001968EE
S1135430FFF72CFFB8E71800CFE76646D01840689E
S113544030423FD190685D19D368C3609860634669
S11354502B434B604D51A7E7142814D802005C304D
S11354605B32C000ACE70123921093407A68134387
S11354707B600300B2E72843D9609960CB608B60FE
S113548048604D5190E7542805D8280B02006F302E
S11354906E32C00094E7AA225200904205D8E80B6D
S11354A0020078307732C0008AE70E4A904205D86D
S11354B0A80C02007D307C32C00081E7FE207E22F1
S11354C080007DE763462B434B6015606CE7C04664
S11354D068040020FF01000070040020740800200C
S11354E0D8090020540500007047C0467047C046E4
S11354F0F0B54E464546DE465746E0B5364D83B0D8
S11355000600286898460F009146FFF7EDFF334BDD
S11355101C68A4235B00E058002852D043681F2B6A
S113552013DC5A1C0192002E28D1019A02339B00ED
S113553042601F502868FFF7D9FF002003B03CBC2D
S113554090469946A246AB46F0BD254B002B3DD074
S1135550C8204000FFF740FB002837D0A4220023D6
S11355605200A15843600160A0504032835004327D
S11355708350013301930023002ED6D09A00924623
S113558082444A46882154466250C42252009146BD
S113559081444A468739994012688B460A439446A7
S11355A04A4661461160842241465200A150022EAF
S11355B0BBD102005C468D32FF3211680C4314608B
S11355C0B3E720004D30FF30E050A7E72868FFF72D
S11355D08DFF01204042B1E77808002020590000E7
S11355E0D94B00002E2E2F68616C2F7372632F68C5
S11355F0616C5F6932635F6D5F73796E632E630004
S11356002E2E2F68616C2F7372632F68616C5F7428
S1135610696D65722E6300002E2E2F68616C2F73E6
S113562072632F68616C5F75736172745F73796EF6
S1135630632E63002E2E2F68616C2F7574696C7352
S11356402F7372632F7574696C735F6C6973742E36
S11356506300000000000000580000000300000088
S1135660330000002E2E2F68706C2F6569632F683D
S1135670706C5F6569632E630000000000040042E3
S113568000080042000C00420010004200140042D6
S11356900018004200000043000400430100000021
S11356A014002000000100000E0F00000000D700CD
S11356B000093D002E2E2F68706C2F736572636F86
S11356C06D2F68706C5F736572636F6D2E6300007D
S11356D0003000420034004200380042003C0042E6
S11356E00040004200080043000C00430010004347
S11356F00014000008070000000000000300000080
S1135700000000000216000008070000000000006E
S11357100300000000000000041800000807000057
S11357200000000003000000000000000615000057
S11357300807000000000000030000000000000053
S11357402E2E2F68706C2F74632F68706C5F7463D7
S11357502E6300005F2D5F2D5F0000002B3D2B3D6D
S11357602B0000006E1D00006A1D0000701D00006B
S1135770761D00007C1D0000821D0000881D0000B5
S11357802D5F00005F2D2D2D2D2D2D2D2D2D2D5F09
S1135790000000003D0000005F2D5F2D5F2D5F00C5
S11357A05F2D2D5F5F2D2D5F5F2D2D5F00000000AD
S11357B05F2D2D2D5F2D2D2D5F2D2D2D5F000000D4
S11357C05F2D2D5F2D2D5F003A2A0000322A000044
S11357D02A2A0000322A00002A2A0000402A000057
S11357E0402A0000402A0000402A0000402A00000D
S11357F0402A0000402A0000402A0000402A0000FD
S1135800402A0000402A0000402A0000402A0000EC
S1135810402A0000062A0000402A0000402A000016
S1135820402A0000402A0000402A0000402A0000CC
S1135830402A0000402A0000402A0000402A0000BC
S1135840402A0000402A0000402A0000402A0000AC
S1135850402A0000402A0000402A0000402A00009C
S1135860402A0000402A0000402A0000402A00008C
S1135870402A0000402A0000402A0000402A00007C
S1135880402A0000402A0000402A0000402A00006C
S1135890402A0000402A00003A2A0000062A00009C
S11358A080370000623700001C3700003A360000E1
S11358B01C370000543700001C3700003A36000043
S11358C06237000062370000543700003A360000A7
S11358D032360000323600003236000098390000BB
S11358E0E03D0000A03C0000A03C00009C3C000007
S11358F0B83D0000B83D0000AA3D00009C3C0000FB
S1135900B83D0000AA3D0000B83D00009C3C0000EA
S1135910C03D0000C03D0000C03D0000C43F000089
S113592040000020F8B5C046F8BC08BC9E4670474D
S113593031520000E5000000F8B5C046F8BC08BCD0
S10B59409E467047BD00000003
S1135948000000000000000001000000BD2A000063
S1135958000000000000000000000000010000003A
S1135968BD2A000000000000000000000000000044
S113597801000000BD2A00000000000040000020D3
S1135988000000002C03002094030020FC030020E6
S113599800000000000000000000000000000000FB
S11359A800000000000000000000000000000000EB
S11359B800000000000000000000000000000000DB
S11359C800000000000000000000000000000000CB
S11359D800000000000000000000000000000000BB
S11359E800000000000000000000000000000000AB
S11359F8000000000000000000000000000000009B
S1135A08000000000000000000000000000000008A
S1135A18000000000000000000000000000000007A
S1135A280000000000000000010000000000000069
S1135A380E33CDAB34126DE6ECDE05000B0000002E
S1135A48000000000000000000000000000000004A
S1135A58000000000000000000000000000000003A
S1135A68000000000000000000000000000000002A
S1135A78000000000000000000000000000000001A
S1135DB86804002068040020700400207004002097
S1135DC87804002078040020800400208004002047
S1135DD888040020880400209004002090040020F7
S1135DE89804002098040020A0040020A0040020A7
S1135DF8A8040020A8040020B0040020B004002057
S1135E08B8040020B8040020C0040020C004002006
S1135E18C8040020C8040020D0040020D0040020B6
S1135E28D8040020D8040020E0040020E004002066
S1135E38E8040020E8040020F0040020F004002016
S1135E48F8040020F80400200005002000050020C4
S1135E580805002008050020100500201005002072
S1135E681805002018050020200500202005002022
S1135E7828050020280500203005002030050020D2
S1135E883805002038050020400500204005002082
S1135E984805002048050020500500205005002032
S1135EA858050020580500206005002060050020E2
S1135EB86805002068050020700500207005002092
S1135EC87805002078050020800500208005002042
S1135ED888050020880500209005002090050020F2
S1135EE89805002098050020A0050020A0050020A2
S1135EF8A8050020A8050020B0050020B005002052
S1135F08B8050020B8050020C0050020C005002001
S1135F18C8050020C8050020D0050020D0050020B1
S1135F28D8050020D8050020E0050020E005002061
S1135F38E8050020E8050020F0050020F005002011
S1135F48F8050020F80500200006002000060020BF
S1135F58080600200806002010060020100600206D
S1135F68180600201806002020060020200600201D
S1135F7828060020280600203006002030060020CD
S1135F88380600203806002040060020400600207D
S1135F98480600204806002050060020500600202D
S1135FA858060020580600206006002060060020DD
S1135FB8680600206806002070060020700600208D
S1135FC8780600207806002080060020800600203D
S1135FD888060020880600209006002090060020ED
S1135FE89806002098060020A0060020A00600209D
S1135FF8A8060020A8060020B0060020B00600204D
S1136008B8060020B8060020C0060020C0060020FC
